{
  "contractName": "DeterministicContractFactory",
  "abi": [
    {
      "inputs": [],
      "payable": false,
      "stateMutability": "nonpayable",
      "type": "constructor"
    },
    {
      "constant": false,
      "inputs": [
        {
          "internalType": "bytes32",
          "name": "salt",
          "type": "bytes32"
        },
        {
          "internalType": "bytes",
          "name": "bytecode",
          "type": "bytes"
        }
      ],
      "name": "deploy",
      "outputs": [
        {
          "internalType": "address",
          "name": "",
          "type": "address"
        }
      ],
      "payable": false,
      "stateMutability": "nonpayable",
      "type": "function"
    },
    {
      "constant": true,
      "inputs": [
        {
          "internalType": "bytes32",
          "name": "salt",
          "type": "bytes32"
        },
        {
          "internalType": "bytes",
          "name": "bytecode",
          "type": "bytes"
        }
      ],
      "name": "computeAddress",
      "outputs": [
        {
          "internalType": "address",
          "name": "",
          "type": "address"
        }
      ],
      "payable": false,
      "stateMutability": "view",
      "type": "function"
    }
  ],
  "bytecode": "0x608060405234801561001057600080fd5b506104a0806100206000396000f3fe608060405234801561001057600080fd5b50600436106100365760003560e01c8063ca9ffe941461003b578063cdcb760a146100fe575b600080fd5b6100bc6004803603604081101561005157600080fd5b81019080803590602001909291908035906020019064010000000081111561007857600080fd5b82018360208201111561008a57600080fd5b803590602001918460018302840111640100000000831117156100ac57600080fd5b9091929391929390505050610203565b604051808273ffffffffffffffffffffffffffffffffffffffff1673ffffffffffffffffffffffffffffffffffffffff16815260200191505060405180910390f35b6101c16004803603604081101561011457600080fd5b81019080803590602001909291908035906020019064010000000081111561013b57600080fd5b82018360208201111561014d57600080fd5b8035906020019184600183028401116401000000008311171561016f57600080fd5b91908080601f016020809104026020016040519081016040528093929190818152602001838380828437600081840152601f19601f82011690508083019250505050505050919291929050505061025d565b604051808273ffffffffffffffffffffffffffffffffffffffff1673ffffffffffffffffffffffffffffffffffffffff16815260200191505060405180910390f35b60006102548484848080601f016020809104026020016040519081016040528093929190818152602001838380828437600081840152601f19601f8201169050808301925050505050505030610391565b90509392505050565b6000806000835114156102d8576040517f08c379a00000000000000000000000000000000000000000000000000000000081526004018080602001828103825260208152602001807f437265617465323a2062797465636f6465206c656e677468206973207a65726f81525060200191505060405180910390fd5b838351602085016000f59050600073ffffffffffffffffffffffffffffffffffffffff168173ffffffffffffffffffffffffffffffffffffffff161415610387576040517f08c379a00000000000000000000000000000000000000000000000000000000081526004018080602001828103825260198152602001807f437265617465323a204661696c6564206f6e206465706c6f790000000000000081525060200191505060405180910390fd5b8091505092915050565b60008083805190602001209050600060ff60f81b84878460405160200180857effffffffffffffffffffffffffffffffffffffffffffffffffffffffffffff19167effffffffffffffffffffffffffffffffffffffffffffffffffffffffffffff191681526001018473ffffffffffffffffffffffffffffffffffffffff1673ffffffffffffffffffffffffffffffffffffffff1660601b8152601401838152602001828152602001945050505050604051602081830303815290604052805190602001209050606081901b60601c92505050939250505056fea265627a7a723158202fa0201ffa74b4ded23c225056d003b42e38a1a262d2e7ca1158cf21150b2b3664736f6c63430005110032",
  "source": "pragma solidity ^0.5.0;\n\ncontract DeterministicContractFactory {\n    constructor () public {}\n    \n    /**\n     * @dev Deploys a contract using `CREATE2`. The address where the contract\n     * will be deployed can be known in advance via {computeAddress}.\n     *\n     * The bytecode for a contract can be obtained from Solidity with\n     * `type(contractName).creationCode`.\n     *\n     * Requirements:\n     *\n     * - `bytecode` must not be empty.\n     * - `salt` must have not been used for `bytecode` already.\n     * - the factory must have a balance of at least `amount`.\n     * - if `amount` is non-zero, `bytecode` must have a `payable` constructor.\n     */\n    function deploy(bytes32 salt, bytes memory bytecode) public returns (address) {\n        address addr;\n        require(bytecode.length != 0, \"Create2: bytecode length is zero\");\n        assembly {\n            addr := create2(0, add(bytecode, 0x20), mload(bytecode), salt)\n        }\n        require(addr != address(0), \"Create2: Failed on deploy\");\n        return addr;\n    }\n\n    /**\n     * @dev Returns the address where a contract will be stored if deployed via {deploy}. Any change in the `bytecode`\n     * or `salt` will result in a new destination address.\n     */\n    function computeAddress(bytes32 salt, bytes calldata bytecode) external view returns (address) {\n        return _computeAddress(salt, bytecode, address(this));\n    }\n\n    /**\n     * @dev Returns the address where a contract will be stored if deployed via {deploy} from a contract located at\n     * `deployer`. If `deployer` is this contract's address, returns the same value as {computeAddress}.\n     */\n    function _computeAddress(bytes32 salt, bytes memory bytecodeHash, address deployer) internal pure returns (address) {\n        bytes32 bytecodeHashHash = keccak256(bytecodeHash);\n        bytes32 _data = keccak256(\n            abi.encodePacked(bytes1(0xff), deployer, salt, bytecodeHashHash)\n        );\n        return address(bytes20(_data << 96));\n    }\n}",
  "sourcePath": "/home/madness/Desktop/projects/deterministicContractFactory/contracts/DeterministicContractFactory.sol",
  "compiler": {
    "name": "solc",
    "version": "0.5.17+commit.d19bba13.Emscripten.clang"
  },
  "schemaVersion": "3.1.0",
  "updatedAt": "2020-09-25T21:51:49.178Z",
  "devdoc": {
    "methods": {
      "computeAddress(bytes32,bytes)": {
        "details": "Returns the address where a contract will be stored if deployed via {deploy}. Any change in the `bytecode` or `salt` will result in a new destination address."
      },
      "deploy(bytes32,bytes)": {
        "details": "Deploys a contract using `CREATE2`. The address where the contract will be deployed can be known in advance via {computeAddress}.     * The bytecode for a contract can be obtained from Solidity with `type(contractName).creationCode`.     * Requirements:     * - `bytecode` must not be empty. - `salt` must have not been used for `bytecode` already. - the factory must have a balance of at least `amount`. - if `amount` is non-zero, `bytecode` must have a `payable` constructor."
      }
    }
  },
  "userdoc": {
    "methods": {}
  }
}