{
  "contractName": "DeterministicContractFactory",
  "abi": [
    {
      "inputs": [],
      "payable": false,
      "stateMutability": "nonpayable",
      "type": "constructor"
    },
    {
      "constant": false,
      "inputs": [
        {
          "internalType": "uint256",
          "name": "amount",
          "type": "uint256"
        },
        {
          "internalType": "bytes32",
          "name": "salt",
          "type": "bytes32"
        },
        {
          "internalType": "bytes",
          "name": "bytecode",
          "type": "bytes"
        }
      ],
      "name": "deploy",
      "outputs": [
        {
          "internalType": "address",
          "name": "",
          "type": "address"
        }
      ],
      "payable": false,
      "stateMutability": "nonpayable",
      "type": "function"
    },
    {
      "constant": true,
      "inputs": [
        {
          "internalType": "bytes32",
          "name": "salt",
          "type": "bytes32"
        },
        {
          "internalType": "bytes",
          "name": "bytecode",
          "type": "bytes"
        }
      ],
      "name": "computeAddress",
      "outputs": [
        {
          "internalType": "address",
          "name": "",
          "type": "address"
        }
      ],
      "payable": false,
      "stateMutability": "view",
      "type": "function"
    }
  ],
  "bytecode": "0x608060405234801561001057600080fd5b50610520806100206000396000f3fe608060405234801561001057600080fd5b50600436106100365760003560e01c806366cfa0571461003b578063ca9ffe941461014a575b600080fd5b6101086004803603606081101561005157600080fd5b8101908080359060200190929190803590602001909291908035906020019064010000000081111561008257600080fd5b82018360208201111561009457600080fd5b803590602001918460018302840111640100000000831117156100b657600080fd5b91908080601f016020809104026020016040519081016040528093929190818152602001838380828437600081840152601f19601f82011690508083019250505050505050919291929050505061020d565b604051808273ffffffffffffffffffffffffffffffffffffffff1673ffffffffffffffffffffffffffffffffffffffff16815260200191505060405180910390f35b6101cb6004803603604081101561016057600080fd5b81019080803590602001909291908035906020019064010000000081111561018757600080fd5b82018360208201111561019957600080fd5b803590602001918460018302840111640100000000831117156101bb57600080fd5b90919293919293905050506103b7565b604051808273ffffffffffffffffffffffffffffffffffffffff1673ffffffffffffffffffffffffffffffffffffffff16815260200191505060405180910390f35b60008084471015610286576040517f08c379a000000000000000000000000000000000000000000000000000000000815260040180806020018281038252601d8152602001807f437265617465323a20696e73756666696369656e742062616c616e636500000081525060200191505060405180910390fd5b6000835114156102fe576040517f08c379a00000000000000000000000000000000000000000000000000000000081526004018080602001828103825260208152602001807f437265617465323a2062797465636f6465206c656e677468206973207a65726f81525060200191505060405180910390fd5b8383516020850187f59050600073ffffffffffffffffffffffffffffffffffffffff168173ffffffffffffffffffffffffffffffffffffffff1614156103ac576040517f08c379a00000000000000000000000000000000000000000000000000000000081526004018080602001828103825260198152602001807f437265617465323a204661696c6564206f6e206465706c6f790000000000000081525060200191505060405180910390fd5b809150509392505050565b60006104088484848080601f016020809104026020016040519081016040528093929190818152602001838380828437600081840152601f19601f8201169050808301925050505050505030610411565b90509392505050565b60008083805190602001209050600060ff60f81b84878460405160200180857effffffffffffffffffffffffffffffffffffffffffffffffffffffffffffff19167effffffffffffffffffffffffffffffffffffffffffffffffffffffffffffff191681526001018473ffffffffffffffffffffffffffffffffffffffff1673ffffffffffffffffffffffffffffffffffffffff1660601b8152601401838152602001828152602001945050505050604051602081830303815290604052805190602001209050606081901b60601c92505050939250505056fea265627a7a7231582051c11eb2ea38edf1a41ca29ddebbc37fdfa28c95a8efbf0af6cc4180b13420bb64736f6c63430005110032",
  "source": "pragma solidity ^0.5.0;\n\ncontract DeterministicContractFactory {\n    constructor () public {}\n    \n    /**\n     * @dev Deploys a contract using `CREATE2`. The address where the contract\n     * will be deployed can be known in advance via {computeAddress}.\n     *\n     * The bytecode for a contract can be obtained from Solidity with\n     * `type(contractName).creationCode`.\n     *\n     * Requirements:\n     *\n     * - `bytecode` must not be empty.\n     * - `salt` must have not been used for `bytecode` already.\n     * - the factory must have a balance of at least `amount`.\n     * - if `amount` is non-zero, `bytecode` must have a `payable` constructor.\n     */\n    function deploy(uint256 amount, bytes32 salt, bytes memory bytecode) public returns (address) {\n        address addr;\n        require(address(this).balance >= amount, \"Create2: insufficient balance\");\n        require(bytecode.length != 0, \"Create2: bytecode length is zero\");\n        assembly {\n            addr := create2(amount, add(bytecode, 0x20), mload(bytecode), salt)\n        }\n        require(addr != address(0), \"Create2: Failed on deploy\");\n        return addr;\n    }\n\n    /**\n     * @dev Returns the address where a contract will be stored if deployed via {deploy}. Any change in the `bytecode`\n     * or `salt` will result in a new destination address.\n     */\n    function computeAddress(bytes32 salt, bytes calldata bytecode) external view returns (address) {\n        return _computeAddress(salt, bytecode, address(this));\n    }\n\n    /**\n     * @dev Returns the address where a contract will be stored if deployed via {deploy} from a contract located at\n     * `deployer`. If `deployer` is this contract's address, returns the same value as {computeAddress}.\n     */\n    function _computeAddress(bytes32 salt, bytes memory bytecodeHash, address deployer) internal pure returns (address) {\n        bytes32 bytecodeHashHash = keccak256(bytecodeHash);\n        bytes32 _data = keccak256(\n            abi.encodePacked(bytes1(0xff), deployer, salt, bytecodeHashHash)\n        );\n        return address(bytes20(_data << 96));\n    }\n}",
  "sourcePath": "/home/madness/Desktop/projects/deterministicContractFactory/contracts/DeterministicContractFactory.sol",
  "compiler": {
    "name": "solc",
    "version": "0.5.17+commit.d19bba13.Emscripten.clang"
  },
  "schemaVersion": "3.1.0",
  "updatedAt": "2020-09-25T21:02:16.447Z",
  "devdoc": {
    "methods": {
      "computeAddress(bytes32,bytes)": {
        "details": "Returns the address where a contract will be stored if deployed via {deploy}. Any change in the `bytecode` or `salt` will result in a new destination address."
      },
      "deploy(uint256,bytes32,bytes)": {
        "details": "Deploys a contract using `CREATE2`. The address where the contract will be deployed can be known in advance via {computeAddress}.     * The bytecode for a contract can be obtained from Solidity with `type(contractName).creationCode`.     * Requirements:     * - `bytecode` must not be empty. - `salt` must have not been used for `bytecode` already. - the factory must have a balance of at least `amount`. - if `amount` is non-zero, `bytecode` must have a `payable` constructor."
      }
    }
  },
  "userdoc": {
    "methods": {}
  }
}